:100000000C947F000C94A7000C94A7000C94A700FC
:100010000C94A7000C94A7000C9419010C94A70051
:100020000C94A7000C94A7000C94A7000C94A700B4
:100030000C94A7000C94A7000C94A7000C94A700A4
:100040000C94CF000C94A7000C94660A0C94400A00
:100050000C94A7000C94A7000C94A7000C94A70084
:100060000C94A7000C94A70010027E0128022D0218
:100070008A027A037A030C037A037A037A037A03F7
:1000800026037A037A037A032D0334033B0305A87E
:100090004CCDB2D44EB93836A9020C50B9918688ED
:1000A000083CA6AAAA2ABE000000803F000000006B
:1000B000240027002A0000000000250028002B0053
:1000C00004040404040404040202020202020303FE
:1000D0000303030301020408102040800102040806
:1000E0001020010204081020000000080002010096
:1000F000000304070000000000000000470D112469
:100100001FBECFEFD8E0DEBFCDBF21E0AEE1B1E052
:1001100001C01D92AD3EB207E1F711E0A0E0B1E0F1
:10012000E8E8F1E202C005900D92AE31B107D9F7CF
:1001300010E0CFE7D0E004C02197FE010E94A31099
:10014000CE37D107C9F70E94AE0B0C94C2100C94A5
:1001500000005C9A08950C94A00E0F931F93CF9308
:10016000DF931F92CDB7DEB78C0179830E94AB007D
:100170007981672FC80101960F90DF91CF911F9170
:100180000F910C94AB002FB7F894609123017091FC
:10019000240180912501909126012FBF08951F927F
:1001A0000F920FB60F9211242F933F938F939F932B
:1001B000AF93BF938091230190912401A0912501D9
:1001C000B09126013091220126E0230F2D3720F433
:1001D0000296A11DB11D05C029E8230F0396A11D9C
:1001E000B11D209322018093230190932401A093B9
:1001F0002501B09326018091270190912801A091BB
:100200002901B0912A010196A11DB11D80932701FA
:1002100090932801A0932901B0932A01BF91AF9137
:100220009F918F913F912F910F900FBE0F901F9034
:1002300018951F920F920FB60F9211245F936F9330
:100240007F938F939F93AF93BF9313BE81E080936F
:100250003C0180913A0190913B01019665E770E085
:100260000E946D1090933B0180933A01BF91AF9132
:100270009F918F917F916F915F910F900FBE0F9023
:100280001F9018951F93CF93DF93EC010E94980E57
:10029000182FCE0101960E94980E282F30E0922F41
:1002A0008827810F911DDF91CF911F9108955C9850
:1002B00008958F929F92AF92BF92CF92DF92EF926A
:1002C000FF920F931F93CF93DF931F92CDB7DEB7AB
:1002D00080E591E00E94110880932101082E000C16
:1002E000990BAA0BBB0BFC01E256F109E331F105B6
:1002F00008F000C2EC5CFF4F0C94A31004E311E083
:10030000E12CF12C89E60E94B609C7010E94120A6D
:1003100089E00E94B609F80161918F0170E080E0E8
:1003200090E04AE00E94C10989E00E94B609FFEF0F
:10033000EF1AFF0A26E0E216F10421F7E0903201FD
:1003400080E1E89E7001112480914F01E82A80919C
:100350003301882311F06894E3F882E60E94B6091D
:10036000C7010E94120A89E00E94B60920E030E02D
:1003700040E251E460912E0170912F018091300193
:10038000909131010E94DA0D0E94AE0F86E66983DA
:100390000E94B609698170E080E090E04AE00E9426
:1003A000C10989E00E94B60984E60E94B6096091FD
:1003B0002D0170E080E090E04AE00E94C10989E0F0
:1003C0000E94B6098EE60E94B609609142017091C2
:1003D000430180E090E04AE00E94C10989E00E9468
:1003E000B60983E70E94B609609144017091450106
:1003F00080E090E04AE00E94C10989E00E94B609CD
:1004000082E70E94B609609140017091410180E04D
:1004100090E04AE00E94C10989E00E94B6096AC1E1
:100420000E944D0963FF04C081E08093330102C044
:1004300010923301862F807390E024E09595879584
:100440002A95E1F780933201677060934F0152C1A2
:100450000E944D0960932D014DC104E311E0E12C90
:10046000F12CF80161918F01C7010E94AB00FFEFF1
:10047000EF1AFF0A26E0E216F10499F780913201A3
:10048000E0E18E9FC001112460914F01682B8091A3
:1004900033018111686086E090E00E94AB0020E0AB
:1004A00030E040E251E460912E0170912F01809183
:1004B0003001909131010E94DA0D0E94AE0F87E069
:1004C00090E00E94AB0060912D0188E090E00E94D6
:1004D000AB00609142017091430189E090E00E947D
:1004E000AD0060914401709145018BE090E00E9465
:1004F000AD0060914001709141018DE090E00E945B
:10050000AD0060912B0170912C018FE090E00E9472
:10051000AD00F0C081E00E942C09FC0197FD70C085
:10052000812C912C90E8A92E9FE3B92EC12CD12CBF
:10053000760110E000E0E130F10569F1ED32F105FE
:1005400039F1EE32F10531F1CF01C0970A9718F574
:10055000AAE0B0E0A70196010E94AE0E6F01FF0F66
:10056000EE08FF08C60ED71EE81EF91EF0E3CF1AEC
:10057000D108E108F108112371F02DEC3CEC4CECB2
:100580005DE3C501B4010E94DA0D4B015C0103C0BB
:1005900001E001C011E0E0915001F09151010284AD
:1005A000F385E02D80E591E009950E94F208FC01B9
:1005B000C0970A9708F4BFCFEE32F10519F4111174
:1005C000B7C0B9CFE130F10509F4B5CF002341F050
:1005D000F094E094D094C094C11CD11CE11CF11C97
:1005E000112349F0C701B6010E947B0DA5019401BA
:1005F0000E94DA0D08C0C701B6010E947B0D03C03E
:1006000060E070E0CB0160932E0170932F01809326
:100610003001909331016EC00E944D096B017C0145
:100620000E944D09F601EC5CFE4F6083E4E3F1E0CB
:1006300080E090E02191820F911D21E0EA33F207E2
:10064000C9F790934A018093490154C00E944D0913
:1006500070934301609342014DC00E944D09709315
:1006600041016093400146C00E944D0970934501CD
:10067000609344013FC00E945701809164008E7FC7
:100680008093640080917A00806880937A005A9AFF
:100690000E94770B10922C0110922B0180E4E82E1F
:1006A000F12C04E012E00E94DF0860912B017091B0
:1006B0002C01680F791F70932C0160932B01C801E6
:1006C0000197F1F781E0E81AF10869F78FE090E00F
:1006D0000E94AD0080913F0181110E94A90080918C
:1006E0007A008F7780937A00809164008160809394
:1006F00064005A980E94C300DC01CB01805A9541E6
:10070000AF4FBF4F80934B0190934C01A0934D018D
:10071000B0934E010F90DF91CF911F910F91FF90F9
:10072000EF90DF90CF90BF90AF909F908F90089503
:1007300001114ECF57CFEF92FF920F931F93CF939C
:10074000DF9380913A0190913B01892B09F0ADC074
:1007500080913C01882309F4A8C00E945701809130
:1007600064008E7F8093640080917A00806880931B
:100770007A005A9A0E94770B00E410E0C0E0D0E0C3
:1007800084E0E82E82E0F82E0E94DF08C80FD91F0F
:10079000C7010197F1F701501109B1F75A988091FB
:1007A0007A008F7780937A008091640081608093D3
:1007B000640080913F0181110E94A90020912B01CA
:1007C00030912C0180914801C217D307D8F08823BB
:1007D00099F08091460190914701019690934701CD
:1007E0008093460180911F01909120010196909382
:1007F000200180931F0104C01092200110921F015C
:1008000080E01AC0811113C080913D0190913E019A
:10081000019690933E0180933D0180911F0190913C
:10082000200101969093200180931F0104C0109233
:10083000200110921F0181E091E0892780934801F7
:1008400020911F0130912001882389F02530310546
:1008500054F120913D0130913E012E31310514F0CB
:1008600090931E0110923E0110923D011CC0253054
:100870003105CCF060914601709147016E317105F0
:1008800064F080911E01882341F0709343016093CE
:10089000420189E090E00E94AD0010924701109261
:1008A000460110921E0110923C01DF91CF911F91E1
:1008B0000F91FF90EF9008950E949B0380914F014C
:1008C0008823C1F18130C1F190914801992391F1C0
:1008D000833069F481E040914601509147012091B5
:1008E0004401309145012417350738F125C0843083
:1008F00099F42091420130914301809140019091FF
:100900004101281B390B81E040914601509147017C
:100910004217530790F010C0853071F420914601C2
:1009200030914701809144019091450182179307CE
:1009300000F302C081E0089580E00895DF92EF9215
:10094000FF920F931F93CF93DF9300D000D0CDB7CA
:10095000DEB70E945C04E82E80E591E00E94330837
:10096000892B09F445C000914F01F090320120918C
:100970002E0130912F0140913001509131011091A1
:100980002D0129833A834B835C830E945901809116
:10099000490190914A0129813A814B815C81892BDF
:1009A00011F4EE24E394D0903201DF1004C0809162
:1009B0004F01081711F0EE24E3948FEF8D0D823074
:1009C000B8F460912E0170912F01809130019091C7
:1009D00031010E94740D882311F0EE24E39481E02C
:1009E000D81206C080912D01811711F0EE24E394F6
:1009F0008E2D0F900F900F900F90DF91CF911F9140
:100A00000F91FF90EF90DF9008952F923F924F92B9
:100A10005F926F927F928F929F92AF92BF92CF928E
:100A2000DF92EF92FF920F931F93CF93DF93CDB797
:100A3000DEB727970FB6F894DEBF0FBECDBF80910B
:100A40006400877B8093640081E080933F01809104
:100A50003201813009F4A2C000F1823009F08AC26B
:100A60000E94A90020912E0130912F014091300168
:100A70005091310160E070E48CE196E40E94350F02
:100A80000E94A70F4B015C010E94520B6B017C017D
:100A90001F821E82212C312CB6C10E94A900809198
:100AA000490190914A01892B19F4DD24D39421C086
:100AB00004E311E040E0E42E41E0F42EF8016191FE
:100AC0008F01F7018081F2E0EF0EF11C70E00E94CF
:100AD000E40A8CE0E81681E0F80681F7D12C09C021
:100AE0000E945C04D82E80E591E00E943308892B97
:100AF00019F4DD20A9F329C0C0904F010E945901CB
:100B00008091490190914A01892BA9F034E3E32EA9
:100B100031E0F32E00E011E0F70161917F01F8016F
:100B200080810E5F1F4F70E00E94E40AF1E00C30FC
:100B30001F0791F702C0DD24D39480913201811107
:100B400004C080914F01C816A1F200E011E0F80145
:100B500080810E5F1F4F60E00E94980AF1E00C3028
:100B60001F07A9F710923F0127960FB6F894DEBF32
:100B70000FBECDBFDF91CF911F910F91FF90EF90EE
:100B8000DF90CF90BF90AF909F908F907F906F90AD
:100B90005F904F903F902F900C9457010E94A900B6
:100BA00020912E0130912F0140913001509131015F
:100BB00060E070E08AE794E40E94350F0E94A70F7E
:100BC0004B015C01A0912D01B0E09B01AC010E94A2
:100BD000AE0E0E947B0D20E030E048EC52E40E9413
:100BE000350F0E94A70F2B013C010E94C3006B012F
:100BF0007C011A821982809133018823D1F120E08F
:100C000030E010E0E981FA81EC5CFE4F80818111D7
:100C100013C0111111C089819A8101962F5F3F4F36
:100C200011E0263031050CF410E066E070E00E941F
:100C30006D109A838983E6CF682F70E029803A800F
:100C4000220C331CF101E050FF4F80810E94E40A26
:100C50000E94C300DC01CB018C199D09AE09BF09BC
:100C600084159505A605B70508F03AC1111138C1DC
:100C70003FC124E331E090E0292E91E0392E81013B
:100C8000F90161919F01F80180810E5F1F4F70E0B3
:100C90002C833D830E94E40A2C813D81F1E00C30DD
:100CA0001F0771F710E00E94C300DC01CB018C1913
:100CB0009D09AE09BF0984159505A605B70518F469
:100CC000112309F424C1F1018081F2E02F0E311CBF
:100CD00060E00E94980A8CE0281681E0380699F7B7
:100CE00089819A81019666E070E00E946D109A8376
:100CF00089830E94C300DC01CB018C199D09AE09D8
:100D0000BF0988159905AA05BB0508F01EC1111178
:100D10001CC10CC121143104B1F400E011E0F80150
:100D200080810E5F1F4F60E00E94980AF1E00C3056
:100D30001F07A9F78E819F81019666E070E00E94EF
:100D40006D109F838E83B101032C000C880B990BCF
:100D50000E947B0D2BED3FE049E450E40E94DA0D48
:100D600020E030E048EC52E40E94350F0E94DD0F95
:100D70002B013C0180913301882309F45FC020E0FE
:100D800030E010E0EE81FF81EC5CFE4F6081662375
:100D900009F441C070E080E090E00E947B0DA30167
:100DA00092010E94DA0D20E030E040E05FE30E9413
:100DB000C90E0E94AE0F70E0EE81FF81EE0FFF1FA3
:100DC000E050FF4F80810E94E40A112309F465C0BE
:100DD000C101019664E670E00E946D101C010E9442
:100DE000520BDC01CB018C199D09AE09BF09881596
:100DF0009905AA05BB0508F456C0C80CD91CEA1C05
:100E0000FB1C11115FC08091490190914A01892B0F
:100E100009F080CF57C01111BDCF8E819F810196FF
:100E20002F5F3F4F11E0263031050CF410E066E0F3
:100E300070E00E946D109F838E83A4CF84E391E0C5
:100E40009A83898300E011E0E981FA816191FA8354
:100E5000E983F801F081FB830E5F1F4F70E080E0B3
:100E600090E00E947B0DA30192010E94DA0D20E028
:100E700030E040E05FE30E94C90E0E94AE0F70E0D8
:100E80008B810E94E40A81E00C301807E9F680911A
:100E9000490190914A01892B21F00E949E04182F4C
:100EA00097CF11E095CF1111A8CF0E94520B6C156E
:100EB0007D058E059F0508F092CF0E94520B6B01B5
:100EC0007C018DCF00E011E0F80180810E5F1F4FA3
:100ED00060E00E94980AF1E00C301F07A9F742CEAB
:100EE000F101E050FF4F60E080810E94980AF8CE47
:100EF0000E94C3006C157D058E059F0520F40E949D
:100F0000C3006B017C010E949E04182FA1CE0E9499
:100F1000C3006C157D058E059F0520F40E94C3005B
:100F20006B017C010E949E04182FBDCE0E94C3005D
:100F30006C157D058E059F0520F40E94C3006B0192
:100F40007C010E949E04182FD4CEC80CD91CEA1C28
:100F5000FB1C112309F44FCE00E011E0F801808161
:100F60000E5F1F4F60E00E94980AF1E00C301F07EF
:100F7000A9F7F8CD27960FB6F894DEBF0FBECDBF08
:100F8000DF91CF911F910F91FF90EF90DF90CF9065
:100F9000BF90AF909F908F907F906F905F904F9099
:100FA0003F902F900895CF92DF92EF92FF920F9390
:100FB0001F93CF93DF936C017A018B01C0E0D0E0E7
:100FC000CE15DF0589F0D8016D918D01D601ED9127
:100FD000FC910190F081E02DC6010995892B11F457
:100FE0007E0102C02196ECCFC701DF91CF911F9106
:100FF0000F91FF90EF90DF90CF900895089580E0DB
:1010000090E00895FC01538D448D252F30E0842F0E
:1010100090E0821B930B541710F0CF960895019720
:101020000895FC01918D828D981761F0828DDF010A
:10103000A80FB11D5D968C91928D9F5F9F73928FCB
:1010400090E008958FEF9FEF0895FC01918D828DC0
:10105000981731F0828DE80FF11D858D90E008958D
:101060008FEF9FEF0895FC01918D228D892F90E0E5
:10107000805C9F4F821B91098F739927089580E5AB
:1010800091E00E94330821E0892B09F420E0822FAF
:101090000895FC01848DDF01A80FB11DA35ABF4F35
:1010A0002C91848D90E001968F739927848FA68967
:1010B000B7892C93A089B1898C9180648C93938D8E
:1010C000848D981306C00288F389E02D80818F7D7E
:1010D00080830895EF92FF920F931F93CF93DF9336
:1010E000EC0181E0888F9B8D8C8D981305C0E88979
:1010F000F989808185FD24C0F62E0B8D10E00F5FED
:101100001F4F0F731127E02E8C8DE8120CC00FB605
:1011100007FCFACFE889F989808185FFF5CFCE01F8
:101120000E944908F1CF8B8DFE01E80FF11DE35AB3
:10113000FF4FF0820B8FEA89FB898081806207C0B4
:10114000EE89FF896083E889F989808180648083E2
:1011500081E090E0DF91CF911F910F91FF90EF9090
:101160000895CF93DF93EC01888D8823C9F0EA8935
:10117000FB89808185FD05C0A889B9898C9186FD90
:101180000FC00FB607FCF5CF808185FFF2CFA8898D
:10119000B9898C9185FFEDCFCE010E944908E7CF38
:1011A000DF91CF91089580E090E0892B29F00E9493
:1011B0003F0881110C94000008950E94BD1081E445
:1011C00080937C0080917A00806480937A00809183
:1011D0007A0086FDFCCF809178002091790090E024
:1011E000922B08950F931F930E94C30060935801A0
:1011F0007093590180935A0190935B01E0915001E3
:10120000F09151010484F585E02D80E591E0099588
:1012100097FF1FC00E94C30000915801109159010F
:1012200020915A0130915B01DC01CB01801B910BB5
:10123000A20BB30B0091540110915501209156015E
:101240003091570180179107A207B307B8F28FEFCB
:101250009FEF1F910F910895CF93C82F0E94F2081E
:1012600097FD19C08D329105B1F09C0120533109D1
:101270002A30310580F0CC2319F08E32910559F0D7
:10128000E0915001F09151010284F385E02D80E559
:1012900091E00995E3CFCF910895FF920F931F93AB
:1012A000CF93DF9300D000D0CDB7DEB780E00E94AF
:1012B0002C09FC0197FD4AC020E030E0A901F12C87
:1012C000E130F105F1F0ED32F105C9F0CF01C09741
:1012D0000A97B8F4AAE0B0E00E94AE0E8F01FF0FAB
:1012E000220B330BDC01CB01800F911FA21FB31F18
:1012F0009C01AD01205331094109510902C0FF246D
:10130000F394E0915001F09151010284F385E02DB6
:1013100080E591E029833A834B835C8309950E94A1
:10132000F208FC01C09729813A814B815C810A97C0
:1013300038F2E130F10521F2FF2061F066277727CE
:10134000CB01621B730B840B950B06C060E070E051
:10135000CB0102C0CA01B9010F900F900F900F90FE
:10136000DF91CF911F910F91FF900895E09150016F
:10137000F09151010190F081E02D682F80E591E01E
:1013800009948F929F92AF92BF920F931F93CF9326
:10139000DF93CDB7DEB7A1970FB6F894DEBF0FBECF
:1013A000CDBF19A2423008F44AE08E010F5D1F4FF5
:1013B000842E912CA12CB12CA50194010E948110A6
:1013C000E62FB901CA0101501109EA3014F4E05DB9
:1013D00001C0E95CD801EC93232B242B252B61F76A
:1013E0000115110571F0F80101900020E9F731971E
:1013F000AF01401B510BB80180E591E00E94D3077B
:1014000002C080E090E0A1960FB6F894DEBF0FBE58
:10141000CDBFDF91CF911F910F91BF90AF909F9063
:101420008F900895CF92DF92EF92FF92CF93DF9348
:101430006C01990FEE08FF08F7FE17C08DE20E94BD
:10144000B609EC0166277727CB016C197D098E0957
:101450009F094AE00E94C1098C0F9D1FDF91CF9127
:10146000FF90EF90DF90CF9008954AE0C701B6015A
:10147000DF91CF91FF90EF90DF90CF900C94C10956
:101480001F920F920FB60F9211242F933F934F93F9
:101490005F936F937F938F939F93AF93BF93EF93DC
:1014A000FF9380E591E00E944908FF91EF91BF9181
:1014B000AF919F918F917F916F915F914F913F91EC
:1014C0002F910F900FBE0F901F9018951F920F92A3
:1014D0000FB60F9211242F938F939F93EF93FF9347
:1014E000E0916001F09161018081E0916601F091ED
:1014F000670182FD12C09081809169018F5F8F73B7
:1015000020916A01821751F0E0916901F0E0E05BFF
:10151000FE4F958F8093690101C08081FF91EF910B
:101520009F918F912F910F900FBE0F901F90189544
:1015300090E0FC01E851FF4F3491FC01EC52FF4F69
:101540002491FC01E054FF4FE491EE2309F43BC0E9
:10155000332339F1333091F038F43130A9F032309F
:1015600001F584B58F7D12C0373091F03830A1F08D
:101570003430B9F4809180008F7D03C08091800069
:101580008F77809380000DC084B58F7784BD09C0AC
:101590008091B0008F7703C08091B0008F7D8093E1
:1015A000B000F0E0EE0FFF1FEA54FF4FA591B49199
:1015B0008FB7F894EC91611103C020952E2301C0E0
:1015C0002E2B2C938FBF0895482F50E0FA01EC5238
:1015D000FF4F9491FA01E054FF4F2491222399F098
:1015E00030E0220F331FF901E455FF4FA591B4916C
:1015F000F901EA54FF4F259134912FB7F894EC91FB
:10160000E92BEC932FBF6115710511F460E004C064
:101610006F3F710519F461E00C94980AFA01E851E2
:10162000FF4FE491E330F9F048F4E130B9F0E230F3
:10163000A1F584B5806284BD68BD0895E730E9F006
:10164000E83019F1E43049F58091800080628093A0
:10165000800070938B0060938A00089584B5806841
:1016600084BD67BD0895809180008068809380006C
:10167000709389006093880008958091B00080681D
:101680008093B0006093B30008958091B0008062B1
:101690008093B0006093B4000895603871050CF039
:1016A000BACFB4CF3FB7F894809127019091280129
:1016B000A0912901B0912A0126B5A89B05C02F3F12
:1016C00019F00196A11DB11D3FBFBA2FA92F982F68
:1016D0008827820F911DA11DB11DBC01CD0143E0E2
:1016E000660F771F881F991F4A95D1F708958F922B
:1016F0009F92AF92BF92CF92DF92EF92FF920E94A1
:10170000520B4B015C018AE0C82ED12CE12CF12C4C
:101710000E94520BDC01CB0188199909AA09BB0967
:10172000883E9340A105B10558F021E0C21AD108C6
:10173000E108F10888EE880E83E0981EA11CB11C18
:10174000C114D104E104F10419F7FF90EF90DF9088
:10175000CF90BF90AF909F908F900895789484B56C
:10176000826084BD84B5816084BD85B5826085BD9D
:1017700085B5816085BD80916E00816080936E002B
:10178000109281008091810082608093810080911D
:1017900081008160809381008091800081608093CE
:1017A00080008091B10084608093B1008091B0008E
:1017B00081608093B00080917A00846080937A0089
:1017C00080917A00826080937A0080917A008E7F87
:1017D00080937A0080917A00806880937A001092DA
:1017E000C10010923F0157988AB18C678AB984B1C1
:1017F0008E7C84B984B18E6084B980917F008360CF
:1018000080937F0080B7877F80BF80B7806880BF6C
:1018100080917A008F7780937A008DEC80936400BA
:1018200010924A011092490104E311E0C0E0D0E0B7
:10183000CE010E94980EF80181938F0120914901F9
:1018400030914A01A901480F511D50934A0140931C
:1018500049012196C630D10559F786E090E00E94F3
:10186000980E83FB992790F990933301282F2073CA
:1018700030E094E0359527959A95E1F72093320171
:10188000877080934F0187E090E00E94980E682F48
:1018900070E080E090E00E947B0D20E030E040E2CC
:1018A00051E40E94350F60932E0170932F018093B5
:1018B00030019093310188E090E00E94980E80936F
:1018C0002D0189E090E00E944201909343018093B2
:1018D00042018BE090E00E94420190934501809389
:1018E00044018DE090E00E94420190934101809379
:1018F00040018FE090E00E94420190932C01809380
:101900002B01E0916001F091610182E08083E09120
:101910005C01F0915D011082E0915E01F0915F0148
:1019200089E1808310926801E0916401F091650182
:1019300086E08083E0916201F091630180818061A3
:101940008083E0916201F0916301808188608083EF
:10195000E0916201F0916301808180688083E09171
:101960006201F091630180818F7D80831092470135
:101970001092460110923E0110923D010E945701C3
:101980000E94C30060934B0170934C0180934D0102
:1019900090934E0181E080933C0110923B011092A4
:1019A0003A018091600088618093600085E08093B7
:1019B000600080916000806480936000C1E080E5F9
:1019C00091E00E943308892B19F00E945901F7CF4A
:1019D0000E949B0380914F018823C9F12091490106
:1019E00030914A01232B99F1813019F40E940505A9
:1019F0002EC0823029F4909148019111F7CF0FC089
:101A0000833011F0853059F44091460150914701DF
:101A100020914401309145012417350760F7845027
:101A20008230A8F4809142019091430120914001BD
:101A300030914101821B930B209146013091470167
:101A40002817390720F0809148018111CFCF80916C
:101A500064008864809364000E94C30000914B017D
:101A600010914C0120914D0130914E01061717073E
:101A70002807390748F4C3BF83B7816083BF8895BF
:101A800083B78E7F83BF13BE0E94D30898CFE0E553
:101A9000F1E01382128288EE93E0A0E0B0E084834C
:101AA0009583A683B78380E191E09183808385EC61
:101AB00090E09587848784EC90E09787868780EC18
:101AC00090E0918B808B81EC90E0938B828B82EC09
:101AD00090E0958B848B86EC90E0978B868B118EB3
:101AE000128E138E148E08950E94B60D08F481E0B4
:101AF0000895E89409C097FB3EF490958095709501
:101B000061957F4F8F4F9F4F9923A9F0F92F96E949
:101B1000BB279395F695879577956795B795F111BE
:101B2000F8CFFAF4BB0F11F460FF1BC06F5F7F4F5B
:101B30008F4F9F4F16C0882311F096E911C077236D
:101B400021F09EE8872F762F05C0662371F096E876
:101B5000862F70E060E02AF09A95660F771F881F45
:101B6000DAF7880F9695879597F90895990F0008E9
:101B7000550FAA0BE0E8FEEF16161706E807F9075F
:101B8000C0F012161306E407F50798F0621B730BFA
:101B9000840B950B39F40A2661F0232B242B252B7B
:101BA00021F408950A2609F4A140A6958FEF811D1E
:101BB000811D08950E94ED0D0C945E0E0E94500E42
:101BC00038F00E94570E20F0952311F00C94470E28
:101BD0000C944D0E11240C94920E0E946F0E70F313
:101BE000959FC1F3950F50E0551F629FF001729FC2
:101BF000BB27F00DB11D639FAA27F00DB11DAA1FD1
:101C0000649F6627B00DA11D661F829F2227B00D1D
:101C1000A11D621F739FB00DA11D621F839FA00DA8
:101C2000611D221F749F3327A00D611D231F849FF8
:101C3000600D211D822F762F6A2F11249F5750404F
:101C40009AF0F1F088234AF0EE0FFF1FBB1F661FCA
:101C5000771F881F91505040A9F79E3F510580F093
:101C60000C94470E0C94920E5F3FE4F3983ED4F32D
:101C7000869577956795B795F795E7959F5FC1F737
:101C8000FE2B880F911D9695879597F9089597F9E2
:101C90009F6780E870E060E008959FEF80EC089512
:101CA00000240A941616170618060906089500243B
:101CB0000A9412161306140605060895092E0394B5
:101CC000000C11F4882352F0BB0F40F4BF2B11F429
:101CD00060FF04C06F5F7F4F8F4F9F4F089557FD88
:101CE0009058440F551F59F05F3F71F04795880F8A
:101CF00097FB991F61F09F3F79F087950895121621
:101D000013061406551FF2CF4695F1DF08C01616CC
:101D100017061806991FF1CF86957105610508947D
:101D20000895E894BB2766277727CB0197F9089594
:101D3000F999FECF92BD81BDF89A992780B5089593
:101D4000262FF999FECF1FBA92BD81BD20BD0FB6D7
:101D5000F894FA9AF99A0FBE019608950E94B90E66
:101D6000A59F900DB49F900DA49F800D911D1124EF
:101D70000895A29FB001B39FC001A39F700D811D64
:101D80001124911DB29F700D811D1124911D089584
:101D90005058BB27AA270E94E00E0C945E0E0E94AA
:101DA000500E38F00E94570E20F039F49F3F19F47E
:101DB00026F40C944D0E0EF4E095E7FB0C94470EC0
:101DC000E92F0E946F0E58F3BA1762077307840752
:101DD000950720F079F4A6F50C94910E0EF4E09599
:101DE0000B2EBA2FA02D0B01B90190010C01CA01D5
:101DF000A0011124FF27591B99F0593F50F4503E80
:101E000068F11A16F040A22F232F342F4427585F71
:101E1000F3CF469537952795A795F0405395C9F789
:101E20007EF41F16BA0B620B730B840BBAF0915041
:101E3000A1F0FF0FBB1F661F771F881FC2F70EC0E0
:101E4000BA0F621F731F841F48F4879577956795B3
:101E5000B795F7959E3F08F0B0CF9395880F08F09F
:101E60009927EE0F9795879508950E94490F0C9436
:101E70005E0E0E94570E58F00E94500E40F029F45A
:101E80005F3F29F00C94470E51110C94920E0C9464
:101E90004D0E0E946F0E68F39923B1F3552391F311
:101EA000951B550BBB27AA2762177307840738F0C9
:101EB0009F5F5F4F220F331F441FAA1FA9F335D026
:101EC0000E2E3AF0E0E832D091505040E695001CDA
:101ED000CAF72BD0FE2F29D0660F771F881FBB1F94
:101EE000261737074807AB07B0E809F0BB0B802D72
:101EF000BF01FF2793585F4F3AF09E3F510578F09E
:101F00000C94470E0C94920E5F3FE4F3983ED4F38A
:101F1000869577956795B795F7959F5FC9F7880F71
:101F2000911D9695879597F90895E1E0660F771FC3
:101F3000881FBB1F621773078407BA0720F0621B54
:101F4000730B840BBA0BEE1F88F7E09508950E947F
:101F5000AE0F6894B1110C94920E08950E94770E02
:101F600088F09F5798F0B92F9927B751B0F0E1F05A
:101F7000660F771F881F991F1AF0BA95C9F714C00A
:101F8000B13091F00E94910EB1E008950C94910E41
:101F9000672F782F8827B85F39F0B93FCCF3869543
:101FA00077956795B395D9F73EF4909580957095A0
:101FB00061957F4F8F4F9F4F08959F930E94E70F2A
:101FC0000F9007FCEE5F0C9410100C944D0E0E94C5
:101FD000770ED8F3E894E0E0BB279F57F0F02AEDA6
:101FE0003FE049EC06C0EE0FBB0F661F771F881F4E
:101FF00028F0B23A62077307840728F0B25A620BDE
:10200000730B840BE3959A9572F7803830F49A95A8
:10201000BB0F661F771F881FD2F790480C942610BD
:10202000EF93E0FF07C0A2EA2AED3FE049EC5FEB47
:102030000E94E00E0E945E0E0F90039401FC9058E7
:10204000EEE8F0E00C9432109F3F31F0915020F414
:10205000879577956795B795880F911D9695879584
:1020600097F908959F938F937F936F93FF93EF93C7
:102070009B01AC010E94DA0DEF91FF910E94461086
:102080002F913F914F915F910C94DA0DDF93CF9395
:102090001F930F93FF92EF92DF927B018C01689464
:1020A00006C0DA2EEF010E94ED0DFE01E894A59125
:1020B0002591359145915591A6F3EF010E94E00ECF
:1020C000FE019701A801DA9469F7DF90EF90FF9085
:1020D0000F911F91CF91DF91089597FB072E16F472
:1020E000009407D077FD09D00E94A91007FC05D005
:1020F0003EF4909581959F4F0895709561957F4F1F
:102100000895A1E21A2EAA1BBB1BFD010DC0AA1F38
:10211000BB1FEE1FFF1FA217B307E407F50720F050
:10212000A21BB30BE40BF50B661F771F881F991FCB
:102130001A9469F760957095809590959B01AC0114
:10214000BD01CF010895EE0FFF1F0590F491E02D22
:102150000994AA1BBB1B51E107C0AA1FBB1FA617EE
:10216000B70710F0A61BB70B881F991F5A95A9F740
:1021700080959095BC01CD01089581E090E0F894A0
:082180000C94C210F894FFCF8B
:102188000B000A000900060005000300000000001B
:0E2198006A08D3070208B108330811082508A9
:00000001FF
